:104000000080002061AA00008DAA00008DAA000097
:104010008DAA00008DAA00008DAA00008DAA0000C4
:104020008DAA00008DAA00008DAA00008DAA0000B4
:104030008DAA00008DAA00008DAA00008DAA0000A4
:10404000AD670000194F00008DAA00008DAA000086
:104050008DAA0000199000008DAA00004D4F0000AD
:104060008DAA00008DAA00008DAA00008DAA000074
:10407000754F00008DAA00008DAA00008DAA0000D7
:104080008DAA00008DAA00008DAA00008DAA000054
:104090008DAA00008DAA00008DAA00008DAA000044
:1040A0008DAA00008DAA00008DAA00008DAA000034
:1040B0008DAA00008DAA0000FD4E00008DAA000010
:1040C0008DAA00008DAA00008DAA00008DAA000014
:1040D0008DAA00008DAA00008DAA00008DAA000004
:1040E0000348044B834202D0034B03B11847704787
:1040F000B0050020B0050020000000000548064B78
:104100001B1AD90F01EBA301491002D0034B03B1D5
:1041100018477047B0050020B005002000000000DF
:1041200010B5064C237843B9FFF7DAFF044B13B1FF
:104130000448AFF300800123237010BDB0050020B8
:104140000000000060B0000008B5054B1BB1054938
:104150000548AFF30080BDE80840FFF7CFBF00BFC0
:1041600000000000B405002060B00000A3F5803A14
:10417000704700BF174B002B08BF134B9D46FFF73E
:10418000F5FF00218B460F461348144A121A06F019
:10419000BDFD0E4B002B00D098470D4B002B00D0DF
:1041A00098470020002104000D000D48002802D08F
:1041B0000C48AFF3008006F077FD2000290006F0E0
:1041C00035FC06F05FFD00BF0000080000000000A5
:1041D0000000000000800020B00500209C080020A6
:1041E0000000000000000000DB4A002310B5194663
:1041F000D2F8144118461A4602F062FF00231A460C
:104200001846012102F05CFF00231A4618460221DD
:1042100002F056FF00231A461846032102F050FF11
:1042200000231A461846042102F04AFF00231A46CA
:104230001846052102F044FF00231A4618460621BD
:1042400002F03EFF00231A461846072102F038FF0D
:1042500000231A461846082102F032FF00231A46AE
:104260001846092102F02CFF00231A461846E4B232
:104270000A2102F025FF022C4FF0000340F270816A
:104280001A4618460B2102F01BFF00231A46184657
:104290000C2102F015FF00231A4618460D2102F0EA
:1042A0000FFF00231A4618460E2102F009FF0023D3
:1042B0001A4618460F2102F003FF00231A4619463A
:1042C000012002F0FDFE002301211A46084602F0FB
:1042D000F7FE00231A460221012002F0F1FE00231E
:1042E0001A460321012002F0EBFE00231A460421A6
:1042F000012002F0E5FE00231A460521012002F00C
:10430000DFFE00231A460621012002F0D9FE002319
:104310001A460721012002F0D3FE00231A46082185
:10432000012002F0CDFE00231A460921012002F0EF
:10433000C7FE00231A460A21012002F0C1FE002315
:104340001A460B21012002F0BBFE00231A460C2165
:10435000012002F0B5FE00231A461946022002F0A1
:10436000AFFE00231A460121022002F0A9FE00231D
:104370001A460321022002F0A3FE01230422072192
:10438000022002F09DFE00231A460821022002F0BE
:1043900097FE00231A460921022002F091FE002315
:1043A0001A460A21022002F08BFE00231A460B2136
:1043B000022002F085FE00231A461946032002F06F
:1043C0007FFE00231A460121032002F079FE00231C
:1043D0001A460221032002F073FE002303211A462D
:1043E000084602F06DFE00231A460421032002F065
:1043F00067FE00231A460521032002F061FE002318
:104400001A460921032002F05BFE00231A460A2106
:10441000032002F055FE00231A460B21032002F070
:104420004FFE00231A460C21032002F049FE002310
:104430001A461946042002F043FE00231A460121C1
:10444000042002F03DFE00231A460221042002F05F
:1044500037FE00231A460321042002F031FE002318
:1044600004211A46084602F02BFE00231A460521B5
:10447000042002F025FE00231A460621042002F043
:104480001FFE00231A460721042002F019FE002314
:104490001A460821042002F013FE00231A460921BF
:1044A000042002F00DFE00231A460A21042002F027
:1044B00007FE00231A460B21042002F001FE002310
:1044C0001A460C21042002F0FBFD00231A460D21A0
:1044D000042002F0F5FD00231A460E21042002F00C
:1044E000EFFD00231A460F21042002F0E9FD00230E
:1044F0001A460321052002F0E3FD00231A46042199
:10450000052002F0DDFD002305211A46084602F0D1
:10451000D7FD00231A460621052002F0D1FD002315
:104520001A460721052002F0CBFD00231A46082178
:10453000052002F0C5FD00231A460921052002F0DE
:10454000BFFD00231A460C21052002F0B9FD034BE4
:104550000122C3F82C2110BD00100840006000406B
:10456000184604220B2102F0ABFD00231A46184620
:104570000C2102F0A5FD00231A4618460D2102F079
:104580009FFD00231A4618460E2102F099FD0023D4
:104590001A4618460F2102F093FD00231A461946C9
:1045A000012002F08DFD002301211A46084602F089
:1045B00087FD00231A460221012002F081FD00231D
:1045C0001A460321012002F07BFD00231A46042134
:1045D000012002F075FD00231A460521012002F09A
:1045E0006FFD00231A460621012002F069FD002319
:1045F0001A460921012002F063FD00231A460A2110
:10460000012002F05DFD00231A460B21012002F07B
:1046100057FD00231A460C21012002F051FD002312
:104620001A461946022002F04BFD00231A460121CA
:10463000022002F045FD002304220321022002F0A3
:104640003FFD00231A460721022002F039FD002316
:104650001A460821022002F033FD00231A460921E0
:10466000022002F02DFD00231A460A21022002F04A
:1046700027FD00231A460B21022002F021FD002312
:104680001A461946032002F01BFD00231A46012199
:10469000032002F015FD00231A460221032002F038
:1046A0000FFD002303211A46084602F009FD0023EE
:1046B0001A460421032002F003FD00231A460521B7
:1046C000032002F0FDFC00231A460921032002F01A
:1046D000F7FC00231A460A21032002F0F1FC012313
:1046E00004220B21032002F0EBFC012304220C2105
:1046F000032002F0E5FC042210460123002102F011
:10470000DFFC00231A4601210420013C02F0D8FC02
:10471000012C3FF698AE042201230221104602F03C
:10472000CFFC96E60000000000B5714895B001216D
:1047300001F0B8FC042210460023082102F0C0FC5E
:10474000042210460023092102F0BAFC042210467C
:1047500000230A2102F0B4FC0422104600230B219E
:1047600002F0AEFC0422104600230C2102F0A8FC4B
:104770000422104600230D2102F0A2FC0422104660
:1047800000230E2102F09CFC0422104600230F217E
:1047900002F096FC0023184604220F2102F090FC40
:1047A000002319461846042202F08AFC002318460A
:1047B0000422012102F084FC002318460422022175
:1047C00002F07EFC002318460422032102F078FC4C
:1047D000002304221146184602F072FC00231846FA
:1047E0000422052102F06CFC002318460422062155
:1047F00002F066FC042210460023012102F060FC56
:10480000002304220921022002F05AFC0023042282
:104810000A21022002F054FC042211461046002313
:1048200002F04EFC042210460023052102F048FC51
:10483000042210460023062102F042FC0422104606
:104840000023072102F03CFC00230422082102205F
:1048500002F036FC002319460422012002F030FC4D
:10486000012108460023042202F02AFC002304222E
:104870000921032002F024FC002304220A21032042
:1048800002F01EFC002304220921052002F018FC7E
:10489000002304220821052002F012FC50220021EE
:1048A000684606F033FA9FED0E7B8DED107B9FED91
:1048B0000E7B022101230622039168464FF08051AE
:1048C0008DED087B8DF84C3004928DF82E300A93D4
:1048D0000D92129101F0AAFF15B05DF804FB00BF24
:1048E000000001000000480002000000030000007A
:1048F0000053020008B50449044B4022012002F095
:10490000B1FF002008BD00BF58060020C5530000BD
:1049100008B50449044B4022022002F0A3FF002006
:1049200008BD00BF58060020E5530000027838B5E6
:1049300012F06005044605D14378062B19D06FF0BC
:10494000020038BD6FF00200C02AFAD16378012B53
:1049500023D0022BF5D1A388072BF2D1E28822497C
:104960000023B22A28BFB222184603F07FF80020A5
:1049700038BD43881B0A212B2AD0222B1CD00F2B99
:10498000DDD1C2881949392A28BF39222B46284649
:1049900003F06CF822782846D6E7A388022BD0D102
:1049A000E288134900231B2A184628BF1B2203F064
:1049B0005DF863780020CCE7C2880E491C2A28BF26
:1049C0001C222B46284603F051F822782846BBE7E4
:1049D000C2880949092A28BF09222B46284603F024
:1049E00045F822782846AFE740AE000010AF00003F
:1049F000F4AE000058AF00004CAF0000052910B520
:104A000002D005280ED010BD0A4B0B4940220120D0
:104A100002F028FFBDE81040084B07494022022061
:104A200002F020BF012002F063FDBDE8104002202B
:104A300002F05EBDC553000058060020E55300009B
:104A40002DE9F0412C4E2D4D84B0044601212C4817
:104A500001F028FB00270A2369463046CDF8017093
:104A6000CDF805708DF80230CDF809708DF8007022
:104A700002F0A4FCF368234A4FF4805143F0010391
:104A8000F3604FF00108C2F880111120116085F821
:104A9000008001F067FBB4F57A7F4FEA902028BFD1
:104AA0004FF47A74184A00FB04F303F5FA73A2FB7F
:104AB00003239B09F3617762C6F804802B7843B126
:104AC000124A136923F00403136130BF2B78002BC3
:104AD000F7D109480B4AC3684FF4805123F0010312
:104AE000C360C2F8801002F0CFFC0548002101F03D
:104AF000D9FA04B0BDE8F08100040140D6050020D9
:104B00000062040000E100E0D34D621000ED00E01F
:104B1000374B2DE9F047D3F81431DBB2022B86B0C6
:104B200006461AD8334B344D08229A650FCD6C4691
:104B30000FC495E80300062784E803002F48ADF86A
:104B40000A70012101F0AEFA2D48694600F0FAFE24
:104B50002B4800220A2100F0EDFE2A4DDFF890904C
:104B6000274C77084FF01A08D9F81431DBB2022B22
:104B700017D8234800F0D2FE6368214807EB550A96
:104B8000BAFBF6FABAF13F0F28BF4FF03F0A23F401
:104B90007C5343EA0A23636000F0C6FEA368DA0789
:104BA000FCD5D9F81431DBB2022B02D8A3689B07DD
:104BB0001AD4A5F5C455B8F10108A5F11C05D3D147
:104BC0000B4BD3F81431DBB2022B09D80C4800F0A0
:104BD000A5FE0A48002101F065FA064B0822DA65B5
:104BE000404606B0BDE8F0875FFA88F8E8E700BF06
:104BF000001008400060004074AF00000092040004
:104C0000001000402AC204002DE9F0478AB006F0E7
:104C100021F801221146022001F094FD012111200A
:104C200001F0A6F80421112001F0F2FB0022114648
:104C3000032001F087FDA248012101F033FA012190
:104C4000A04801F02FFA02F0F1FA054602F0CCFA82
:104C500015F4807454D09C4B9A6AD20748D49A4B6E
:104C60000022C3F8102105AE15F01005964B1ABFAF
:104C7000964AC3F80C21C3F80C51FFF7B5FA00238C
:104C800001220621022002F01BFA00230122082142
:104C9000032002F015FA0124062223461146CDE92D
:104CA0000044022002F0D0F9082211462346CDE943
:104CB0000044032002F0C8F9854A0221C2F880119D
:104CC0001160844A07CA334603C340F201151A70C3
:104CD00031460D238048ADF816508DF81C3005F094
:104CE00057FE7D4821460AB0BDE8F04705F02EBECC
:104CF000D3F8042101210A44C3F804211963AEE763
:104D0000764F774805AE012101F0CCF94FF0F8530A
:104D100003A938460393ADF8104000F041FE059416
:104D200040F2052374603472052231463846ADF8EE
:104D300015308DF8182000F071FE01237B60BC68EF
:104D400014F00104FBD165487F6A00F0E3FE64487B
:104D5000214601F0A7F9FF2F7DD80022114601203E
:104D600001F0F0FC00221146104601F0EBFC00239C
:104D700004220721012002F0A3F96420FFF760FE5E
:104D8000012318460422072102F09AF90A20FFF7AE
:104D900057FE544A0023D2F81C7807211A460120F6
:104DA00002F08EF927B9504A136843F48053136018
:104DB00001221146002001F0C5FC4C4B4C4F93E8FA
:104DC00003004FF0010808234FF0000905908DF80B
:104DD00018108DF816308DF814803046C7F8C0953D
:104DE00002F01AF94946022002F0EEF94FF4005A97
:104DF000C7F8C085DFF800C1BCE80F0037460FC711
:104E0000DCF800303B604FF000084FF4407E4FF07C
:104E100020093046ADF818A0CDF81C908DF82480FC
:104E2000ADF814E000F0B6FE274B01221A635A6B6E
:104E300042F001025A631A682E4AC2F80C80234AD3
:104E4000C3F81441C3F80881C3F80081C3F8048192
:104E5000C3F8102108E7B7F5007F2FD3B7F5407FDF
:104E600001D2022479E722462146204601F06AFC5D
:104E700001221146104601F065FC4FF47A70FFF7ED
:104E8000DFFD1A4B1A4F93E803004FF0010804238B
:104E900005908DF818108DF816308DF81480304676
:104EA000C7F8C04502F0B8F82146022002F08CF99C
:104EB0000324C7F8C0854FF4805A9BE701244CE7D0
:104EC00000D20400004302000010084044332211C5
:104ED00000E100E0A8AF0000008008400020004092
:104EE0000002050000000C4200800C408CAF000066
:104EF00000008C430000024394AF0000044A136991
:104F000093619B0700D47047024805F035BD00BF90
:104F100000000840008008400B4B10B5D3F8144146
:104F2000C3F81C4114F4A07F04D144F201031C42D5
:104F300006D110BD05F064FD44F201031C42F8D017
:104F4000BDE8104005F05EBD0060004008B5074BAD
:104F50009A691A62D20700D408BD586A00B205F0F7
:104F600053FDBDE80840024805F006BD00200040A2
:104F700000800840044A13699361DB0702D5034BA4
:104F800000221A70704700BF00040140D6050020BF
:104F900000B97047FFF754BD38B5104D0446FFF710
:104FA00023F90F48002105F0D1FC0E4A0221A3028B
:104FB000296303F5FA73A968A2FB03239B09402B1D
:104FC0002CBFC9184031002000F024FE6B6B43F069
:104FD00002036B6302F008F8FEE700BF0010084010
:104FE00000800840D34D621010B5044629B94FF433
:104FF0007A7004FB00F0FFF7CFFFFFF7F5F81248D7
:10500000002105F0A3FC114B02221A639B6864B9CE
:1050100003F14001002000F0FDFD0C4A536B43F00A
:105020000203536301F0E0FFFEE703EB8422012C4F
:10503000C3F30903A2EB0301ECD1B3F5707F88BF82
:10504000A2F57071E6E700BF00800840001008403C
:1050500030B5224D0FCD89B001AC0FC495E80700E3
:10506000002384E80700062201211D488DF80E2048
:105070008DF804308DF8143001F014F801A805F013
:10508000F1FB3F214FF08042136823F001031360CE
:10509000536823F03F030B435360136843F001034D
:1050A00013609368D807FCD593689B0704D4013933
:1050B000EAD140F2946404E001EB01114C0004F2E7
:1050C00094644FF080420648136823F001030021E6
:1050D000136000F0E7FF204609B030BD04B00000C7
:1050E00000E2040070B5A64EA64C357882B040228E
:1050F0000021204605F00AFE6B1E25700B2B09D8F7
:10510000DFE803F01F355D637A828B9A06B5BA0A31
:105110000123637002B070BD9B4BD3F81431DBB236
:10512000022BF7D8737863705A1E072AF2D8DFE88B
:1051300012F0EC00D7000F010001C300C300F4001F
:10514000EF00914AD2F80451D2F800319068916A88
:1051500011F0010140F09A801B1841EB01025B182D
:105160002A449B0A43EA8253C4F80130D2E7D6F8B6
:105170000120854BC4F8012098689102081A4FEA73
:10518000925262F10004C3F80441804CC3F800015C
:10519000C3F80841986AC007BCD5D3F804010130B0
:1051A000C3F804019868091A62F100020120C3F8EB
:1051B0000421C3F80011C3F808411863AAE7744B2F
:1051C000744A03CB10605160A4E7FFF741FF6E4AB9
:1051D000D2F81431DBB2022B6BD8D2F81431DBB227
:1051E000022B66D8FFF794FC0B2838BF0B20A0F1E8
:1051F0000B03DBB263708DE762494022052002B0E9
:10520000BDE8704005F00EBC5E4A5D4940230620B3
:1052100002B0BDE8704005F007BC002301A801936F
:1052200005F0F4FB019B002B3FF474AF594A198839
:105230009B78937011806DE7002301A8019305F01E
:10524000EBFB019B002B3FF465AF524A1C6858688A
:105250009968DD68D5601460506091601C69586978
:105260009969DD69D56114615061916152E74A4ADB
:105270000123137063704DE7434BD3F81431DBB255
:10528000022B8CBF00230123637043E7D2F8043163
:105290000133C2F80431D2F80411D2F80031906819
:1052A0001B1841F100019B0A012043EA815310635E
:1052B0005AE7002363702DE738490A7802F0FF00AF
:1052C000002A7FF427AF052B354A364D14BF4FF423
:1052D00080444FF000440123287014600B7019E7DC
:1052E000294BD3F81431DBB2022B3FF613AF2E4B10
:1052F0004FF40062C3F88020FFF716FA4FF47032C3
:10530000FF214FF0004005F001FD0123A37001E7EC
:10531000264A01231370A370FCE6224B1A781B78EF
:10532000A270002B3FF4F6AE214B1B88A4F803308B
:10533000F0E6D6F80200B2798318B3F5703F18D3BF
:105340001C491D48053202B0BDE8704005F0D0BCD4
:1053500005F0F6FC19484FF07E63012213F8011B9B
:10536000002914BF002202F001028342F6D1A2708C
:10537000D0E6134900F1004005F0BAFCB279DFE74E
:1053800058060020D80500200010084044332211A0
:10539000F081E00FD9050020CD050020CF050020C9
:1053A000D0050020CE05002000600040CC05002084
:1053B000D40500205A060020DA0500200008E00F7E
:1053C0005F06002008B5FFF78DFE044B044940221C
:1053D000812002F04BFB002008BD00BFF548000013
:1053E000D805002008B5FFF77DFE044B0449402294
:1053F000822002F03BFB002008BD00BF11490000E5
:10540000D80500200D4B0E4AD3F81431D2F8982C51
:105410008AB1DBB2012B0B4BD3F8200104D9013840
:1054200018BF012040007047A0F10100B0FA80F0E1
:105430004009400070470120704700BF001008403D
:1054400000000C4200100C4210B504220446034632
:105450001146022001F034FE23460422BDE810402C
:105460000521022001F02CBE2DE9F04F002383B06E
:1054700002220B21052001F023FE4D4BD3F81431FD
:10548000DBB2022B40F231824A484B4F4B4E484C24
:105490004B4D032100F0BCFF4A48012100F002FE01
:1054A000494BD3F8AC30ADF804301A0C4FF4A021BE
:1054B00000208DF8062001F059FF4448444AC36992
:1054C0004FF0804143F00203C361C2F8801101A88C
:1054D000116001F057FF3F4802F07EF8DFF8F880D6
:1054E000D4F81431D8F8982C32B1DBB2012BD5F8AE
:1054F000203132D9012B32D16420FFF7A1FA01F01B
:10550000E9FF02F07FFA02F053F8304A284B3049A5
:10551000D3F81441D3694FF0804023F00203D361E4
:10552000C1F8800001F03EFFE4B22648002100F0FF
:10553000B9FD022C40F2D38100231A460B2105202D
:1055400001F0BEFD3B78002B40F0AC813378002B9E
:1055500040F0D18103B0BDE8F08F012BCCD13B7876
:10556000002BC9D13378002BC6D1D5F82C3A002BAB
:1055700036D1DFF8689099F80030002B3FD1A36A4C
:1055800013F0010307D0D4F8043101221344C4F806
:1055900004310023226304220521022001F090FD42
:1055A00002F014FA00289BD0012001F0AFFC95E72F
:1055B0000010084002001A00CD050020CC05002094
:1055C00000100C426016100074AF0000000008408C
:1055D00000E100E048AD000000000C42CF050020D3
:1055E0000123042205210220DFF8249301F068FD45
:1055F0000120FFF725FA99F80030002BBFD0C04AF0
:10560000C04BD2F800C000221A800CF5703E41F267
:1056100021019CF800B01A8892B24FEA420A1FFAA0
:105620008AFA1BF0800F18BF0AF1010A42F3C03258
:1056300018BF1FFA8AFA0A408AEA02021A801A88F8
:1056400092B25FFA8BF04FEA420A10F0400F1FFA55
:105650008AFA18BF0AF1010A42F3C03218BF1FFAD2
:105660008AFA0A408AEA020AA3F800A01A8892B2CB
:105670004FEA420A10F0200F1FFA8AFA18BF0AF107
:10568000010A42F3C03218BF1FFA8AFA0A408AEAB6
:10569000020AA3F800A01A8892B24FEA420A10F058
:1056A000100F1FFA8AFA18BF0AF1010A42F3C0323A
:1056B00018BF1FFA8AFA0A408AEA020AA3F800A071
:1056C0001A8892B24FEA420A10F0080F1FFA8AFABB
:1056D00018BF0AF1010A42F3C03218BF1FFA8AFA52
:1056E0000A408AEA020AA3F800A01A8892B24FEA96
:1056F000420A10F0040F1FFA8AFA18BF0AF1010AD1
:1057000042F3C03218BF1FFA8AFA0A408AEA020A34
:10571000A3F800A01A8892B24FEA420A1FFA8AFA46
:1057200010F0020F18BF0AF1010A42F3C03218BF8D
:105730001FFA8AFA0A408AEA020AA3F800A01A8825
:1057400092B24FEA420A1FFA8AFAC00748BF0AF12A
:10575000010A42F3C03248BF1FFA8AFA0A400CF12C
:10576000010C8AEA020AE645A3F800A07FF451AFD3
:10577000188840F3C0320A4080B282EA400292B2F6
:105780001A80188840F3C0320A4080B282EA400290
:1057900092B21A80188840F3C0320A4080B282EA7E
:1057A000400292B21A80188840F3C0320A4080B298
:1057B00082EA400292B21A80188840F3C0320A404E
:1057C00080B282EA400292B21A80188840F3C03256
:1057D0000A4080B282EA400292B21A80188840F3EE
:1057E000C0320A4080B282EA400292B21A8018881F
:1057F00040F3C0320A4080B282EA400292B21A807C
:10580000188840F3C0320A4080B282EA400292B265
:105810001A80188840F3C0320A4080B282EA4002FF
:1058200092B21A80188840F3C0320A4080B282EAED
:10583000400292B21A80188840F3C0320A4080B207
:1058400082EA400292B21A80188840F3C0320A40BD
:1058500080B282EA400292B21A80188840F3C032C5
:105860000A4080B282EA400292B21A80188840F35D
:10587000C0320A4080B282EA400292B21A801A888C
:1058800042F3C03C90B201EA0C0282EA4002DFF827
:1058900084C092B2012000211A808CF8000089F89F
:1058A00000106CE61848002105F050F81748D0F8B1
:1058B000201121F00101C0F8201101230422002150
:1058C000052001F0FDFB4FF000001349086001685E
:1058D00081F3088881F3098841688F4636E6002203
:1058E0001146012000F02EFF26E601221146104647
:1058F00000F028FFC8E50120FFF7A6FD05F01CFA1F
:10590000D0050020D4050020008008400060004041
:10591000CF050020CE05002008ED00E0036823F04D
:1059200001030360704700BF036843F00103036095
:10593000704700BF436842EA011223F0F7031A439D
:105940004260704700F1047C4FEA4C1C4B7A00B572
:105950000022CCF800200A7A91F800E01B0443EA08
:1059600042434A6843EA02638A7A43EA0223CA7AD4
:1059700043EA02130A7B43EA82034A78920742EA27
:10598000CE7213430A6991F80DE0097D036012029B
:1059900042EA0E424260CCF800105DF804FB00BF02
:1059A00070B50E7905460C461A489EB900F0DAFB30
:1059B000194B184498422BD903F1244303F5D5031E
:1059C00003F66633A3FB0023DB0D013B1B0203F44C
:1059D000FE4007E000F0C6FB0E4800F0C3FB3002BB
:1059E00000F4FE400A236B6063782278E1781B01A3
:1059F00043EA0263A27813436279090401F4FE01C9
:105A000052420B4302F00802134303432B6070BD64
:105A10003046E7E7408104003F5DC60030B53B4CAF
:105A200002234360A042426B8B7826D091F803E0BA
:105A30008A7991F808C01B0443EA0E13524243EAE4
:105A40000C0302F0807291F807C013434A79CCF13D
:105A5000000C0CF0040C524243EA0C0302F0020268
:105A600013434A7891F800C00979120542EA0C7292
:105A700042EA01221343C36030BD22F4FE4222F009
:105A80007F02062B12D8DFE803F034271B04111124
:105A900014001F4DD5F8B841D5F8B851240C04F4C2
:105AA000FE44C5F3064C44EA0C042243174C6263DF
:105AB000BCE7174CD4F8BC4104F07F042243F5E75F
:105AC000134DD5F8B841D5F8B85104F4FE4405F0AB
:105AD0007F052C432243E9E70D4DD5F8B441D5F8B5
:105AE000B451240C04F4FE44C5F306452C43224370
:105AF000DCE7074DD5F8B441D5F8B45104F4FE44C1
:105B000005F07F052C432243D0E700BF0020004072
:105B10000080E00F0A21416000234FF4F8121B4976
:105B2000C36010B4036140F20334026040F2477274
:105B3000436188420462C263426B03D0436B5DF8E9
:105B4000044B70471249D1F8B431D1F8B44122F472
:105B5000FE4204F07F0403F4FE43234322F07F025D
:105B600013434363436BD1F8B421D1F8B4115DF80A
:105B7000044B02F4FE4201F07F0123F0FE430A438E
:105B800023F4FE0343EA02434363704700200040CE
:105B90000080E00F836810B40478B3FA83FCCCF182
:105BA0001F0C83881CB1194A0121C2F8001718493B
:105BB0008A6BD20706D40A6812F4405F02D0CA6B1F
:105BC000D207FCD4124A817C5160C16843EA411378
:105BD000417841F008010B43817843EA8103417C1D
:105BE00043EA0113017C43EA813343EA0C234FF07B
:105BF000FF31116313602CB1044B12680021D9608E
:105C0000C3F800175DF8044B704700BF0000024363
:105C100000100840064A936BD80706D4136813F4A3
:105C2000405F02D0D36B9B07FCD4014BD960704717
:105C30000010084000F00F02013A08B50346062A9A
:105C40000FD8DFE802F0044C5D0E0E217400444AC8
:105C5000D26A02F47052B2F5805F4AD0B2F5005FAA
:105C600029D0404A934217D03F4A93426DD13C4AD3
:105C7000936AC3F38103022B23D0032B14D0012B8F
:105C800051D0906A142324E0354A106810F08050F7
:105C9000E7D1344A93425ED1314A936A03F0030359
:105CA000022B0ED0032B10D104F0F2FE2F4B9B6F72
:105CB0000133D84008BD2B4A9342EDD02A4A934283
:105CC000D5D0BDE8084004F0D7BF012B2BD0906A97
:105CD0001023D840EED0BDE8084004F0C9BF2049E9
:105CE0008A6A02F00302022AE5D0032AB9D0012A07
:105CF0002DD11C4A9342CFD01B4A9342B7D0D3E751
:105D000017498A6A02F00C02082AD4D00C2AA8D0BB
:105D1000042AEED08A6AD202A3D4124A9342BBD09C
:105D2000114A9342A3D0BDE8084004F09DBF0C4A3D
:105D3000D26A02F46032B2F5803FBCD0B2F5003FC7
:105D4000D7D0B2F5004FE8D18BE7002008BD8A6AB2
:105D5000D103E2D585E7044A934288D008BD00BF4D
:105D600000800C4002001A0003001C000000904359
:105D700038B5C0F303156B1E0C46062B0FD8DFE8B1
:105D800003F02A0E0E0440560F00A54A9368B1FA9C
:105D900081F1C1F11F0123F00F030B43936038BD64
:105DA000A04B984200F0FD8003F504339842F6D1F1
:105DB0009B4A536DD90702D4136D5B06FCD4984AF5
:105DC000136FB4FA84F1C1F11F0123F0300343EAE9
:105DD0000113136738BD04F0CBFE934B41F67132CB
:105DE000D96BDA635A686FF0130302F007021341AC
:105DF00013F0010F8D4B39D1984240F2F08004220C
:105E00003EE004F0B5FE884B41F67132D96BDA639F
:105E10005A686FF0130302F00702134113F0010FE9
:105E2000824B66D0984240F2D2802A466AE0804B8C
:105E3000984200F01D8103F5AF13984200F00681EF
:105E40007C4B9842ABD1764A536DD90702D4136D7F
:105E50005B07FCD4724A936EB4FA84F1C1F11F015E
:105E600023F0F00343EA0113936638BD984200F231
:105E7000AC80714A714B02449A4234BF0322022221
:105E80006948436823F007031343436009B10023C3
:105E9000C363634A1368611E23F4E03343EA81312C
:105EA000116004F0F5FD604B41F67132D96BDA6395
:105EB0005A686FF0130302F00702134113F0010F49
:105EC0005A4B00F0A180984200F2E5805A4A5B4BA1
:105ED00002449A4234BF032202225348436823F00B
:105EE00007031343436000293FF459AF0023C36302
:105EF00038BD984267D8504A504B02449A422CBF52
:105F0000002201224848436823F0070313434360FB
:105F100009B10023C36304F02FFE494BB0FBF4F03A
:105F200098426ED9474B012298428CBF4FF40070C3
:105F30004FF48070444B9A67394A536823F4807356
:105F4000034353605368B4FA84F1C1F11F0123F095
:105F50000F030B43536004F09BFD334B41F671324A
:105F6000D96BDA635A686FF0130302F0070213412A
:105F700013F0010F2D4B3AD0984206D82E4D2F4BDF
:105F800005449D4234BF03250225274A536823F068
:105F900007032B43536000293FF401AF0023D36371
:105FA00038BD1F4A536DDD0702D4136D5806FCD46B
:105FB0001B4A136FB4FA84F1C1F11F0123F00303EC
:105FC0000B43136738BD04229CE7052258E71A4AA1
:105FD0001A4B02449A4234BF0322022292E7164A25
:105FE000164B02449A422CBF0022012248E79842F5
:105FF00014D8114D114B05449D422CBF002501259D
:10600000C3E70020024695E7984246D80A4A0B4B60
:1060100002449A422CBF002201225EE70425B4E725
:1060200000800C407007160000000C400048E8019A
:106030006026140060161000FFDB0BFF0024F40044
:1060400000366E01006CDC0200009043144A536D70
:10605000D90702D4136D5B07FCD4114A936EB4FACE
:1060600084F1C1F11F0123F003030B43936638BD94
:106070000B4A536DDD0702D4136D5807FCD4084A50
:10608000936EB4FA84F1C1F11F0123F4706343EA03
:106090000123936638BD05221FE704221DE700BFD8
:1060A00000800C4038B5C0F30323013B04460D4685
:1060B000092B0CD8DFE803F00C10140B0B2D390B57
:1060C0000B051E49C0F304340C44A400256038BD00
:1060D0001B49C0F30434F7E71A49C0F30434F3E76B
:1060E00004F0D6FC184B984224D9184B0122984250
:1060F0008CBF4FF400704FF48070154B15499A67B0
:10610000154A536823F480730343C4F30434536083
:10611000DAE71249C0F3043401200F4A536DDB075C
:10612000D2D4136D0342FCD1CEE7C0F304340C4942
:106130001020F2E700200246DFE700BFC003E410B2
:106140004000E4102002E41000366E01006CDC0216
:10615000000090430002E41000800C40C002E410F4
:106160000003E41000F47810B0F5A01F08B56AD061
:1061700015D9B0F5E01F5CD02ED8B0F5C01F1ED0E9
:10618000B0F5D01F5AD0B0F5B01F50D16448FFF71A
:1061900051FD644B1B6F03F00303D84008BDB0F5FD
:1061A000402F59D027D8B0F5003F11D0B0F5802F3F
:1061B00069D000283BD1BDE8084004F0DDBC584858
:1061C000FFF738FD574B1B6FC3F30113D84008BDD1
:1061D000BDE8084004F05CBCB0F5081F1AD0B0F56B
:1061E000281F24D15048FFF725FD4E4B9B6E03F02E
:1061F0000303D84008BDB0F5602F4CD0B0F5801F28
:1062000015D14948FFF716FD464B9B6EC3F30313A8
:10621000D84008BD434BDB6A03F46033B3F5803FDD
:1062200059D0B3F5003F52D0B3F5004FC3D0002092
:1062300008BDBDE808403A48FFF7FCBCBDE808408F
:106240003948FFF7F7BC3848FFF7F4FC354B9B6E35
:10625000C3F30323D84008BD324B186810F08050B8
:10626000A9D15B6903F4E063B3F5407F39D04ED820
:10627000B3F5807F49D0B3F5007F3CD02B4A002B8B
:1062800008BF104608BD04F077FC264B9B6803F05E
:106290000F03D84008BD234B5B6903F4E063B3F5FB
:1062A000407F1ED00AD8B3F5807F2ED0B3F5007F93
:1062B00021D0002B1D4818BF002008BDB3F5C06FCA
:1062C0000DD0B3F5E06F1A4818BF002008BDBDE837
:1062D000084004F0C9BCBDE8084004F0CDBC154836
:1062E00008BD154B1548D3F8FC20154BB2F1985F4B
:1062F00038BF184608BD104B1248D3F8FC20124B8B
:10630000B2F1985F38BF184608BD104808BDB3F514
:10631000C06FE4D0064AB3F5E06F08BF104608BD71
:1063200003001C0000800C4002001A00809FD50072
:10633000406F4001003FAB010081E00F804F120031
:1063400040420F0040B56400C0CF6A00C0D8A7002B
:1063500000F00F000138062815D8DFE800F01626F7
:10636000321414430400294BDB6A03F46033B3F5A1
:10637000803F3FD0B3F5003F21D0B3F5004F14BFAD
:1063800001200920704700207047204BDB6A03F48E
:106390007053B3F5805F12D0B3F5005F2AD0B3F528
:1063A000006F0CBF042005207047184B986A00F05E
:1063B0000300022804D003281ED001281ED1032088
:1063C0007047124A936A03F00C03082B12D00C2B6F
:1063D00012D0042BF3D0936A13F4801F14BF0A2049
:1063E00001207047094B1B6813F0805F14BF092020
:1063F0000720704702207047062070479B6A13F4FD
:10640000803F14BF0A200120704700BF00800C406D
:1064100038B500F00F04631E062B2CD8DFE803F01C
:10642000462C2C2B2B674F0004F032FBA44B9842D8
:1064300040F27F81A34B012298428CBF4FF400733E
:106440004FF48073A048A14982674A6822F48072A1
:10645000134301224B60C0F810280C2100220323B3
:10646000022C00F05281994A936A23F4801323F09E
:106470000C030B43936238BD01390929FBD801A3F2
:1064800053F821F0B76600007966000093660000BB
:1064900077640000776400002964000077640000DE
:1064A0007764000077640000AB66000002390329BE
:1064B000E1D8DFE811F097002C00C200B6000329F4
:1064C00000F09580092900F0A5800229D3D17F4BE7
:1064D0007D4A4FF480711962D2F8A435002BFBD0AD
:1064E0007A4A40235362D36AD803FCD538BD0729C2
:1064F00007D00929BFD1754A136843F08053136050
:1065000038BD724A136823F08053136038BD704A57
:10651000402103256D4B19621368002BFCD004F059
:1065200027FB6C4B41F67132D96BDA635A686FF016
:10653000130302F00702134113F0010F664B65D1FC
:10654000984200F29780654A654B02449A422CBFFC
:10655000002201225F48436823F00703134343608E
:1065600009B10023C363594B5D6204F091FA544BA7
:10657000984240F2C780534B98428CBF4FF4007052
:106580004FF48070504B514A9C67536823F48073DA
:106590000343536004F07CFA4E4B41F67132D96BE1
:1065A000DA635A686FF0130302F00702134113F025
:1065B000010F494B00F09C80984200F2B280474A9C
:1065C000474B02449A4234BF0322022241484368A7
:1065D00023F007031343436000293FF44CAF00232B
:1065E000C36338BD3F4A4FF48071042592E7374BAF
:1065F000354A40211962D2F89C35002BFBD0334A32
:1066000060235362D36A9903FCD538BD984229D9D7
:1066100005229FE72D4A20235362D36A1B04FCD531
:1066200038BD294B294901229A674B682E4A43F409
:1066300080734B60254621466CE7234B234D012296
:106640009A676B6843F480736B6004F0FDFA224B29
:1066500098422B6867D943F060032B60234A0421DA
:10666000022557E71D4A1E4B02449A4234BF0322BB
:1066700002226FE704226DE7144B134A4FF4807136
:106680001962D2F8A435002BFBD008210022022386
:10669000E6E60E4B0C4A40211962D2F89C35002BDD
:1066A000FBD0042100220123DAE64FF480114FF4DD
:1066B00080320023D4E600210A460B46D0E600BF14
:1066C00000366E01006CDC020000904300800C403C
:1066D0009C05904300000C400048E801FFDB0BFFE5
:1066E0000024F400A4059043840590438C05904356
:1066F000984214D8104A114B02449A422CBF0022EF
:10670000012263E7002420463CE70D491A438B6AC7
:1067100023F4803323F0030313438B6238BD042238
:1067200054E7052252E723F0600343F020032B6077
:1067300094E700231A4685E6FFDB0BFF0024F400F4
:1067400000800C4004281AD830B40D4B0D4C54F87E
:10675000205053F820400C4B53F8203019B90B4A05
:10676000136230BC7047094B1C62002AF9D0084AFA
:106770002A4492001368002BFCD030BC704770474D
:1067800038B000004CB0000024B0000000800C4085
:106790006001E41072B6704762B67047EFF3108084
:1067A00072B6704700B962B6704700BF2DE9F84F66
:1067B0001C4FDFF874A03B68F968DAF8382003EA68
:1067C000010808EA02044FF0020928EA0208FCB1B5
:1067D00000250126E30706FA05F215D5DAF8083098
:1067E000BA6003EB0513DB6873B1197AD3F800B014
:1067F00081F00102003918BF012128461A72BBF14D
:10680000000F01D05A68D847640805F10105E1D1AD
:10681000B9F1010F03D04FF001094446D7E7BDE8B5
:10682000F88F00BF00300C4000200C402DE9F047ED
:10683000C54BC5681C6890F801C044F08041002D2C
:1068400000F058830023DFF81C93DFF80083DFF8A3
:1068500000E3DFF814A31A4605F00206002E05F047
:1068600004071CBF4B46022205F00806002F1CBF80
:1068700043460422002E18BF73464FEA431618BF42
:106880000822EF0606F1844600F1D8829543C6F847
:1068900010C0E1D1C56890F80290002D00F02A8365
:1068A0000023DFF8C082DFF8A4E2DFF8A4C2DFF83B
:1068B000B8A21A4605F00206002E05F004071CBF18
:1068C0004346022205F00806002F1CBF734604222F
:1068D000002E18BF63464FEA431618BF0822EF0682
:1068E00006F1844600F1A1829543C6F80C90E1D1EF
:1068F000C56890F80390002D00F001830023DFF8B5
:106900006482DFF848E2DFF848C2DFF85CA21A468A
:1069100005F00206002E05F004071CBF43460222C4
:1069200005F00806002F1CBF73460422002E18BF76
:1069300063464FEA431618BF0822EF0606F1844665
:1069400000F16A829543C6F80890E1D1C56890F8D5
:106950000490002D00F0D3820023DFF80882DFF8D6
:10696000ECE1DFF8ECC1DFF800A21A4605F0020600
:10697000002E05F004071CBF4346022205F008065E
:10698000002F1CBF73460422002E18BF63464FEA37
:10699000431618BF0822EF0606F1844600F1338241
:1069A0009543C6F80490E1D1C56890F80590002D94
:1069B00000F0A5820023DFF8AC81DFF890E1DFF87A
:1069C00090C1DFF8A4A11A4605F00206002E05F0DA
:1069D00004071CBF4346022205F00806002F1CBF17
:1069E00073460422002E18BF634603F1047618BFD5
:1069F0000822EF064FEA461600F1FC819543C6F8DF
:106A00000090E1D1C56890F80690002D00F07782E3
:106A10000023DFF850814D4F4D4EDFF84CA11A4650
:106A200005F0020CBCF1000F05F0040E1CBF43463C
:106A3000022205F0080CBEF1000F1CBF3B460422E9
:106A4000BCF1000F18BF33464FEA431C18BF0822A1
:106A500015F0100F0CF1844C40F0C3819543CCF835
:106A60001490DDD1C36813F0020518D090F84C10D3
:106A7000384A4942224001F480710478114321438D
:106A8000447A827A41EA0441C47941EA4241027A75
:106A900041EA046141EA023141F08041022513F0EC
:106AA000040418D0427A0478067A920442EA8402F6
:106AB000847A42EAC442C47942EA446290F84C4083
:106AC000644204F4007442EA46322243224C0C40F1
:106AD00042EA0401042413F0080618D0427A06782A
:106AE000077A120542EA0612867A42EA4652C679C7
:106AF00042EA866290F84C60764206F4806642EA8A
:106B000087323243154E0E4042EA0601082613F042
:106B100010032BD0437A0278077A9B0543EA82134D
:106B2000827A43EAC253C27943EAC26390F84C20A6
:106B3000524202F4006243EAC7331343084A0A4050
:106B400043EA0201102311E000800040248000404D
:106B500034800040FCEEFCFEF3DDF3FDCFBBCFFB49
:106B60003F773FF71080004000001042826A476A7A
:106B7000120442EA0722076A3A4355B1DFF838C3E4
:106B8000DCF8087027F0031727F47C571743CCF87C
:106B9000087054B1DFF820C3DCF81C7027F003172D
:106BA00027F47C571743CCF81C7056B1DFF808C3A4
:106BB000DCF82C7027F0031727F47C571743CCF828
:106BC0002C7053B1DFF8F0C2DCF83C7027F00317EB
:106BD00027F47C571743CCF83C7090F82CC090F801
:106BE0002D7090F82E2035B1B24DC5F878C1C5F89A
:106BF0007471C5F8702134B1AE4CC4F8F8C3C4F850
:106C0000F473C4F8F02336B1AA4CC4F8F8C5C4F83C
:106C1000F475C4F8F02533B1A64BC3F8F8C7C3F830
:106C2000F477C3F8F027D0E90D52C368046B12045F
:106C300042EA052213F0020642EA040207D09E4D02
:106C4000EC6824F0031424F47C541443EC6013F037
:106C5000040507D0984F3C6A24F0031424F47C54B4
:106C600014433C6213F008070AD0DFF84CC2DCF88A
:106C7000304024F0031424F47C541443CCF8304006
:106C800013F010030AD0DFF830C2DCF8404024F0E3
:106C9000031424F47C541443CCF8404090F83C4056
:106CA00090F83D2026B1834EC6F8F441C6F8F02195
:106CB00025B1804DC5F87444C5F8702427B17D4DC9
:106CC000C5F87446C5F8702623B17A4BC3F87448EA
:106CD000C3F87028D0E90524C36813F0020542EA1E
:106CE000042207D0744E746824F4407424F0030422
:106CF0001443746013F0040607D06F4FBC6924F48A
:106D0000407424F003041443BC6113F0080C07D052
:106D1000694FBC6A24F4407424F003041443BC6239
:106D200013F0100E077F40F09280002D00F0B0802D
:106D3000604BC3F8F070002E00F0C7805D4BC3F8C5
:106D40007073BCF1000F02D05A4BC3F87075BEF1DE
:106D5000000F02D0574BC3F87077574B1960037878
:106D6000022B00F2A380002B40F0AA80514B00229E
:106D7000C3F89422504B046C5A6922F440322243E7
:106D80005A615A69446C22F4F80222435A615A69E2
:106D9000846C22F0E042224311F0706F5A6103D0FC
:106DA000444BC279C3F89C22424A0121C2F88012A6
:106DB0000369980748BFC2F88412590703D53D4AB2
:106DC0000121C2F888121A0703D53A4A0121C2F8F4
:106DD0008C12DB0603D5374B0122C3F89022BDE8A5
:106DE000F08735F01005CAF894983FF43BAE334B6A
:106DF000102215E635F01005CAF880983FF402AE6F
:106E00002E4B1022E0E535F01005CAF884983FF4C7
:106E1000CBAD2A4B1022A9E535F01005CAF88898A9
:106E20003FF494AD254B102272E535F01005CAF8F9
:106E30008C983FF45DAD214B10223BE535F01005F9
:106E4000CAF890C83FF426AD1C4B102204E51A4B3B
:106E50009C6B24F4407424F0030414439C6355B1E8
:106E6000144BC3F8F070002E7FF468AFBCF1000F34
:106E70007FF46AAF6EE7002E34D1BCF1000F3FF40F
:106E800069AF0C4BC3F870750A4BC3F8707764E7B1
:106E900006BBBCF1000F3FF460AF064BC3F8707542
:106EA000054B19600378022B7FF65DAF032B3FF48F
:106EB0005DAF5FE70000104200800040448000406A
:106EC000114B0122C3F8942254E7BCF1000F7FF468
:106ED0003BAF42E70C4BC3F87073BCF1000F3FF4BB
:106EE0003CAFDBE7084BC3F87073BCF1000F3FF415
:106EF00031AFC7E7002423462546264607E600248F
:106F000026462546234631E60000104238B50446A1
:106F1000002851D12D4A2E49136943F0040313610F
:106F2000D1F8E030D1F8E820D1F8EC101B0203F4DE
:106F30007C53C1F303110B4302F0F0021343B3F58A
:106F4000807F2AD030BFECB1224B234DD3F8844050
:106F500045F60E02C3F88420286840F2551202401C
:106F60001A621E4B1978052904F001040ED1C307DB
:106F700002D4184B02221A621CB1164B0022C3F82D
:106F8000842038BDBDE8384003F082BD1120FFF7F2
:106F90003FFA2868C307EFD4EBE7114B11491A6891
:106FA0001140C3F880105A6822F04602C3F88420CA
:106FB00030BF19605A60C6E7064A074BD26A1A60AA
:106FC0001120FFF7C5F9054B1870A3E700ED00E0AD
:106FD00000FF0FE000800C40DC060020D8060020F7
:106FE00000E100E09CF1FD000A4B1A68196822F0EC
:106FF0000C0242F0080241F00C014AF6E850986099
:107000001A6019601A6019601A6019601A601960B4
:107010001A60704700600C4090F804C083780949FA
:1070200043EA0C03CA6A90F800C0C07822F48032A8
:1070300043EA0C4322F00F0243EA40031343CB62BE
:10704000704700BF00600C4070B5072A9DF81050D3
:107050009DF81440184E1CD8D6F800114FEA820E45
:107060004FF0070C0CFA0EFC00FA0EF021EA0C01AE
:107070000143C6F8001111490F48114489000B6003
:1070800001239340C1F88050C0F81C31C1F8004181
:1070900070BDA2F1080CD6F804114FEA8C0C4FF029
:1070A000070E00FA0CF00EFA0CFC21EA0C01014369
:1070B000C6F80411DFE700BF0060004040088310FD
:1070C00070B572B100EBC004A400012504F1804446
:1070D0008D4004F5C0441BB125614FEAC00C02E0AD
:1070E00065614FEAC00C0CEB000E4FEA8E0E0EF1FC
:1070F000804E07290EF5C04E19D8DEF804408D00E9
:107100000F26AE4024EA060402FA05F52C43CEF819
:1071100004405AB984444FEA8C0C01220CF1804C93
:107120008A400CF5C04C8BB1CCF8102070BDA1F199
:107130000804DEF80850A4000F26A64025EA06053C
:1071400002FA04F42C43CEF80840E2E7CCF814200D
:1071500070BD00BF10B5194C41F67133E363A368ED
:1071600023F00103A3604FF46020FEF7FBFF144BF4
:10717000144998420FD900EB8003226D00EB4303C2
:10718000A1FB03139B0D22F48032013322F03F0256
:107190001343236510BDC0EBC003226DC0EBC303D6
:1071A000A1FB03139B0D22F48032013322F03F0236
:1071B000134343F48033236510BD00BF00000C402F
:1071C000804F12006BCA5F6B90FAA0F0B0FA80F0AB
:1071D00000F1875000F5A02000394FEA800018BF69
:1071E00001210160704700BF0D4B0E4A01219960DB
:1071F00093680B4005D10C4AC2F88014C2F8803461
:107200007047094810B400234AF6E8549460C0F867
:1072100080145DF8044BC0F880349360704700BF61
:1072200000A00C4000600C4000008C434E4B5B689B
:10723000980703F0010202D513F0810F5ED01046CB
:10724000590720D513F0910F1DD1190740F1828005
:1072500040F00C00990620D54EF6DF710B421CD190
:1072600040F02000190520D5002A35D0D90457D484
:10727000990455D4590453D41B0451D5002A4FD135
:1072800040F400407047190733D4D906E2D5990776
:1072900008BF40F010009906DED4590612D54EF60C
:1072A0009F710B420ED140F04000D90435D5002A21
:1072B00036D19A0440F4805033D45A0414D41A04BA
:1072C000DED4704719061CD540F219710B4218D153
:1072D000190540F08000E8D5D90440F40060E8D4F6
:1072E00099041ED45904C7D5190440F48040C7D46A
:1072F0007047002AC9D140F00800C6E742F00200FA
:107300009EE7D90514D540F219610B4210D140F423
:1073100080701905E0D4D904CBD499041FD502B1EB
:1073200070475A0440F40050DED41904A8D47047C2
:10733000990506D540F21F410B4202D140F400707E
:10734000E7E759058ED540F21F210B428AD140F460
:107350008060DEE7990640F004009ED57CE7590482
:107360008AD5002ADCD1BFE700A00C4020B101285B
:1073700001D1024B19607047014BFBE70C0008403C
:107380000800084083784278007805495B42524201
:1073900003F0040302F00202134303430B6070473F
:1073A00000000840044B00221A621A609A60DA60FA
:1073B000DA619A61704700BF000008400A780AB994
:1073C0000223436000234362CB7891F802C01B0480
:1073D00043EA0C6391F808C043EA0C0391F806C035
:1073E00043EA8C2391F807C043EA0C2391F801C0CB
:1073F00043EA8C1391F809C043EACC1391F80AC010
:1074000043EA4C1391F80BC043EA0C1391F804C003
:1074100043EA4C3391F805C0097B43EA0C7343EA15
:10742000C10303600AB1012343607047537892F8A7
:1074300000C01B0643EA8C6392F806C043EA0C03C3
:1074400092F802C043EA0C4392F803C043EA0C33BB
:1074500092F804C043EA8C2392F805C043EA0C2357
:1074600092F807C043EA4C5392F808C043EA0C5321
:1074700092F809C0927A0331090143EA0C1343EAF6
:1074800082034350704700BF0023022140F2737211
:10749000416010B403604FF6FF74C3604CF6806126
:1074A00082610F220362C46143625DF8044B03638F
:1074B0004363C36303644364C36403654365C36593
:1074C000C0F88810036743678367C367C0F88420E8
:1074D000704700BF10B5FFF761F904466FF0050073
:1074E00003F056F82046BDE81040FFF75BB900BF37
:1074F000F8B52A4D2C6800F00F02A31801064CBF06
:1075000093F8FC3093F80C315BB303EB830304EB8B
:10751000C3043434A37853B3FFF740F994F8203010
:1075200006460BB323782046C3B902F05DFB676AB9
:10753000002384F8203067B12A686362126A184910
:1075400002F0FF128A4215D0D4E904216FF0050041
:10755000B8473046FFF726F90020F8BD02F0DAFA06
:10756000E5E722B93434D5E7FFF71CF9F4E76FF00B
:107570000300F8BDA2782078E189520148B109489A
:107580001350094AD2F81C3823EA0103C2F81C3808
:10759000DAE7064B0904D050F3E700BF00000020F3
:1075A000040005000009104000001040000B1040CE
:1075B00010B5FFF7F3F8044602F09EFA2046BDE846
:1075C0001040FFF7EFB800BF024B1B6893F8200094
:1075D000704700BF000000202DE9F04F054687B03E
:1075E0001120FEF7B5FE042803D004211120FEF778
:1075F0000FFF012108460022FFF7A4F803F0CCF8A2
:10760000924B4FF490721C461868002103F07EFBE9
:10761000D5E900212468C4E90921231D2360AB6852
:10762000E3622B7BA3770720002384F82230208499
:10763000686920630120637784F83430E363C4F819
:107640003630A4F84200D279A4F84020202A00F075
:10765000ED80402A40F0E780C4F81C31002384F814
:107660005430D5F81090A365C4E91133920822650F
:1076700099F8000000FB02F2039282180292B1F81E
:1076800002E08E44714580F0CE8098464FF0010BA9
:107690000B46CDF81080C44645460591C24605E02C
:1076A000042900F0A08013449E454ED91A78002A80
:1076B00000F0B98059780529F2D10CF1010C93F949
:1076C000027098780CEB8C0204EBC202F90F82F87E
:1076D000370082F8341000F00F0001218140D5639B
:1076E00082F83600A2F84210D97801F0030182F83E
:1076F00038109988A2F84010C2E9115582F8545008
:1077000095651FFA81F819F80C10019109EB0C0628
:10771000002900F0888008F10301002F4FEAA10141
:107720005FFA8CF86ADB019E01FB06661665029A19
:1077300032440292221806280AF1010A82F80C81CA
:1077400071D81A7813449E45B0D80599E37F0A7919
:10775000029C9A4204F1190465D1BCF1040F62D174
:10776000049B062B5FD8BAF1060F5CD8FFF716F81A
:10777000374A384E136C43F00C0313640921054655
:107780003548FEF745FE2046344C0399A36823F0A4
:107790000103A36001F034FF002853D14FF4C0531C
:1077A000A061A361A36843F00103A3602C4B2022D6
:1077B000C3F880211A60254B71681B681A6B93F817
:1077C0002000526811F0010132D183F8220083F8C1
:1077D00020100AB100B190472846FEF7E3FF0020D1
:1077E00007B0BDE8F08FD97800297FF45CAFE17F66
:1077F0009A788A4217D10132E277A2E782F839B04B
:10780000367801FB06F61665039A32440392049A11
:107810000132049222180BF1010B06285FFA8BFB50
:1078200082F8FC808DD96FF00300D9E7034613E797
:10783000022183F8220083F82010002ACCD088424D
:10784000C9D1C9E72846FEF7ADFFECE700000020EC
:1078500000800C4000400C40072322000000104034
:1078600000E100E02DE9F041544F3C68154600F07E
:107870000F029846A3180E4601064CBF93F8FC3041
:1078800093F80C31002B57D003EB830304EBC304B4
:107890003434B5F5002F80F28380A38995FBF3F390
:1078A000B3F5806F7CDAB3077AD1FEF777FF94F8EF
:1078B00000C0A378BCF1000F41D1414A59018A5858
:1078C00012F4002F41D194F82020002A6BD13F6898
:1078D000002B43D097F82030052B69D16261A66058
:1078E0002561BCF1000F59D10223A789C4F8248077
:1078F00084F82030002D4ED06B1E3B44B3FBF7F3D1
:1079000003FB07F7DB042E4D01EB050C3B43DCF8D2
:10791000102002F060421343CCF81030A761CCF87D
:1079200014604B5923F03C4343F004434B51FEF7A2
:1079300039FF0020BDE8F08192BB3434A9E7214A29
:1079400059018A5812F4002FBDD0C2F34052002AC8
:10795000B9D0FEF727FF6FF00400EBE763612370F7
:10796000022384F82030184AA3892561C4F82480B2
:10797000A66043F40023C2F8146BD7F81C11C2F8B8
:10798000103BD2F8003B23F03C430B4343F004434D
:10799000C2F8003BCBE74FF40023B4E7FEF702FF49
:1079A0006FF00300C6E7FEF7FDFE6FF00100C1E7D0
:1079B000FEF7F8FE6FF00800BCE700BF00000020F3
:1079C000000B10400009104000001040014B1878D7
:1079D000704700BF84080020094B1B6801461A6BE2
:1079E00093F8200083F82200062908BF83F82100BD
:1079F00083F82010536813B1884200D018477047AD
:107A00000000002010B5FEF7C9FE044602F074F82D
:107A10002046FEF7C7FE104B1048114C2022C3F839
:107A2000802083680F4A23F00103836000212368CC
:107A30005161916193F820001A6B83F8220083F85A
:107A4000201053680BB100B19847074A136C23F01C
:107A50000C03136410BD00BF00E100E00000104003
:107A60000000002000400C4000800C402DE9F04157
:107A7000554F3C68984600F00F031546E2180E4635
:107A800001064CBF92F8FC2092F80C21002A52D03B
:107A900002EB820204EBC2043434B5F5002F80F20D
:107AA0008680A38995FBF3F3B3F5806F7FDAB30784
:107AB0007DD1FEF773FE2178A37800293FD1434A98
:107AC0004FEA431C5CF8022012F4002F3FD194F8D7
:107AD0002020002A6ED13F68002B41D097F820303B
:107AE000052B6CD16261A660256100295DD0012360
:107AF000C4F8248084F82030002D53D0A3896A1E56
:107B00001A44B2FBF3F2D20431490CEB01042369AD
:107B100003F000432B431343236166615CF801309B
:107B200023F03C4343F004434CF80130FEF73AFEA7
:107B30000020BDE8F081002B39D13434ADE7244A70
:107B40004FEA431C5CF8022012F4002FBFD0C2F3AE
:107B50004052002ABBD0FEF725FE6FF00400E8E794
:107B600063610123C4F82480A6602561237084F832
:107B7000203005B96370A389164AAB4228BF2B4653
:107B8000C2F8146943F40023D7F81C11C2F8103965
:107B9000D2F8003923F03C430B4343F00443C2F8CE
:107BA0000039C3E74FF40022AEE7FEF7FBFD6FF0AC
:107BB0000300BEE7FEF7F6FD6FF00100B9E7FEF740
:107BC000F1FD6FF00800B4E700000020000B10404A
:107BD0000009104000001040036B9B6870B50568F9
:107BE00004461BB128469847C11C1BD12B7813F0C3
:107BF000600F15D16B780B2B12D8DFE813F09800CB
:107C0000D300110016011100610197011100BC01A0
:107C1000DE019D021400BE4A8B581E0300F1FC8059
:107C20004FF0FF3070BD2368E27F99889142F7D210
:107C3000DA88002AF4D15A88002AF1D194F8202059
:107C4000052AEDD11B7803F01F03012BE8D1B14BBE
:107C50001B6893F85E1093F85C00B3F86A20490142
:107C6000002840F08982AA4D4C5926044FEA02426E
:107C700000F1EF83A8482040B3F86840204393F810
:107C8000604040EA844040F0C05040F40040485119
:107C9000A249D1F81C080243C1F81C2893F88610A9
:107CA00093F88400B3F892204901002800F0BD83C6
:107CB0009B4D4C59200400F1B3839A482040B3F8FF
:107CC0009040204393F8884040EA844093F88940EC
:107CD00040EA845040F0C05040F4004048518F4981
:107CE000D1F81C080243C1F81C2893F8AE1093F891
:107CF000AC00B3F8BA204901002800F07D83884D1C
:107D00004C59200400F1AA8386482040B3F8B840BB
:107D1000204393F8B04040EA844093F8B14040EAF1
:107D2000845040F0C05040F400404851D6E12368F0
:107D30005A88002A7FF474AFDA88022A7FF470AF81
:107D400093F90020002ABFF66BAF1A7802F01F02E9
:107D5000012A00F02283022A00F00084002A7FF426
:107D60005FAF9B88002B7FF45BAF94F82030043B1F
:107D7000012B3FF655AF226B637F6B4DD2685B00E2
:107D80002B80002A00F0B584904718B12B8843F06F
:107D900001032B800023BDE870406349022218468E
:107DA000FFF764BE2268D388002B7FF439AF1378C5
:107DB00013F01F0300F00B82022B7FF431AF554B01
:107DC00091881B6801F00F0011F0800F03EB000198
:107DD00014BF91F8FC1091F80C11002900F00184F7
:107DE00001EB810103EBC1033433997800293FF49F
:107DF00017AF5288002A7FF413AF94F82020052A89
:107E00007FF40EAF1B784901002B3FF404AF444AC6
:107E10008B5818037FF504AF23F0705323F400133D
:107E200043F080538B50002070BD2268D388002B14
:107E30007FF4F6AE137813F01F0300F0B481022B29
:107E40007FF4EEAE334B91881B6801F00F0011F008
:107E5000800F03EB000114BF91F8FC1091F80C1196
:107E6000002900F0B98301EB810103EBC103343336
:107E7000997800293FF4D4AE5288002A7FF4D0AE1E
:107E800094F82020052A7FF4CBAE1A784901002A05
:107E900000F0E483224C085920F0705200F4402096
:107EA000B0F5802F00F0A984002AB8BF42F08042CC
:107EB00042F400120A510020002283F8202070BDF5
:107EC0002568AB88002B7FF4ABAEEB88002B7FF4EA
:107ED000A7AE6B887F2B3FF6A3AE2A78D0067FF43F
:107EE0009FAE94F82020032A00F08681042A7FF4B4
:107EF00097AE002B00F06B830849D1F80028DBB265
:107F000022F4FE6242EA0313C1F800388BE700BF97
:107F1000000B10400000002000F8D3C30000104008
:107F20000009104000F813C00008002022681378F0
:107F300003F09F03802B7FF473AE5388190A022944
:107F4000DBB200F02482032900F0F08201297FF4E3
:107F500067AE002B7FF464AE616A087800283FF4B6
:107F60005FAED2880023824228BF0246BDE870403F
:107F70001846FFF77BBD21688B88002B7FF450AE3D
:107F8000CA88012A7FF44CAE4B88002B7FF448AEA0
:107F9000097801F09F0180297FF442AE94F8201007
:107FA000042900F0E28005297FF43AAE04F11C01B7
:107FB0001846BDE87040FFF759BD23689A88002A2B
:107FC0007FF42EAEDA88002A7FF42AAE5A88110A8E
:107FD0007FF426AE1B78D9067FF422AE94F82030C9
:107FE000042B00F01F81052B7FF41AAE002A00F04D
:107FF0003A82A36A5B7993427FF412AE824A237776
:10800000136893F85E0093F85C10B3F86A2040019F
:10801000002940F031837D4D445926044FEA024245
:1080200000F117837A492140B3F86840214393F85F
:10803000604041EA844141F0C05141F40041415166
:108040007449D1F81C080243C1F81C2893F8860033
:1080500093F88410B3F892204001002900F0E582E3
:108060006D4D4459210400F1DB826C492140B3F885
:108070009040214393F8884041EA844193F8894035
:1080800041EA845141F0C05141F4004141516149FC
:10809000D1F81C080243C1F81C2893F8AE0093F8ED
:1080A000AC10B3F8BA204001002900F0A5825A4D67
:1080B0004459210400F19B8258492140B3F8B8404B
:1080C000214393F8B04041EA844193F8B14041EA3A
:1080D000845141F0C05141F4004141514D49D1F822
:1080E0001C080243C1F81C2893F8D62093F8D4103A
:1080F000B3F8E2005201002900F06A81464D51595F
:108100000E0400F16081454C0C40B3F8E0102143AF
:1081100093F8D84093F8D93041EA844141EA835337
:1081200043F0C05343F4004353513A4AD2F81C3849
:108130000343C2F81C3876E62168E37F8A889A42B6
:10814000BFF46EADCA88012A7FF46AAD4B88002B5C
:108150007FF466AD097801F09F0181297FF460AD5D
:1081600094F8201005297FF45BAD2D490B70BDE814
:1081700070401846FFF77ABC274D4C59200400F197
:10818000688126482040B3F86840204393F8604057
:1081900040EA844093F8614040EA845040F0C05087
:1081A00040F4004073E59388002B7FF439AD538889
:1081B000012B7FF435AD94F82020052A7FF430ADF3
:1081C000A26AD27995067FF52BAD63772BE691886D
:1081D00000297FF425AD5388012B7FF421AD94F85D
:1081E0002030043B012B3FF61BADA36ADB799D06D3
:1081F0007FF516AD617716E6002B3FF47DAE0420C7
:10820000FFF7EAFB6B8877E600000020000B1040C8
:1082100000F8D3C3000010400009104000F813C05C
:1082200000080020A36A5B79002A00F0CB819A4203
:1082300008BF22777FF4F4ACC14B1B6893F85C2035
:10824000002183F87C1093F85E10002A40F05A82D7
:10825000BC4DB3F86A00490100044C59220400F1F6
:108260008082B94A2240B3F86840224393F86040C4
:1082700042EA844242F0C05242F400424A51B349B9
:10828000D1F81C280243C1F81C2893F8842093F8E5
:108290008600002483F8A440002A00F04C82AC4CF5
:1082A000B3F8921040010259160400F18D82A94DD5
:1082B0001540B3F890202A4393F8885042EA85424B
:1082C00093F8895042EA855242F0C05242F400428B
:1082D00002519E48D0F81C280A43C0F81C2893F885
:1082E000AC2093F8AE00002483F8CC40002A00F0C4
:1082F0005482974DB3F8BA2040014459210400F14B
:10830000688294492140B3F8B840214393F8B040C3
:1083100041EA844193F8B14041EA845141F0C051AF
:1083200041F4004141518949D1F81C482243C1F828
:108330001C2893F8D420002083F8F40093F8D6008A
:10834000002A00F01382824DB3F8E2104001425936
:10835000160400F143827F4C1440B3F8E02022431E
:1083600093F8D84093F8D93042EA844242EA8353E2
:1083700043F0C05343F400434351744AD2F81C38CD
:108380000B430520C2F81C38FFF726FB4BE5002BFA
:108390007FF446ACA16A4888E0E594F82020042ADE
:1083A00000F08B81052A7FF43BAC9A88E37F9A42E8
:1083B000BFF436AC00236849BDE87040022218467D
:1083C0000B80FFF753BB21F0705343F08053ABE6B3
:1083D0005C4D51590C044FEA0040F4D45A4C0C4007
:1083E000B3F8E01093F8D8300C4344EA834343F0E9
:1083F000C05343F4004397E6524D4C5926044FEACC
:1084000002422BD450482040B3F8B840204393F8A0
:10841000B04040EA844040F0C05040F4004084E462
:1084200024F0705444F0805058E4464D4C592604D2
:108430004FEA0242F4D444482040B3F8904020432D
:1084400093F8884040EA844040F0C05040F4004037
:1084500044E424F0705444F0805018E424F0705444
:1084600044F0805061E422770420FFF7B5FA344BE2
:108470001B6893F87C2092B993F85E1093F85C40E7
:10848000B3F86A004901002C00F02B81304C0A51EE
:108490002E49D1F81C2822EA0002C1F81C2893F8C2
:1084A000A42092B993F8861093F88440B3F8920010
:1084B0004901002C00F00D81254C0A512349D1F8C7
:1084C0001C2822EA0002C1F81C2893F8CC2092B99B
:1084D00093F8AE1093F8AC40B3F8BA004901002C01
:1084E00000F0FB801A4C0A511849D1F81C2822EAE6
:1084F0000002C1F81C2893F8F42092B993F8D61022
:1085000093F8D440B3F8E2004901002C00F0ED806C
:108510000F4BCA500D4AD2F81C3823EA0003C2F8A8
:108520001C386FF0080002F033F87CE4A17F994218
:108530007FF676ABE16A51F8231008780EE500BFAC
:1085400000000020000B104000F8D3C300001040D2
:108550000009104000F813C0000800209A88A94BB9
:108560001B6802F00F0112F0800F03EB010214BF31
:1085700092F8FC2092F80C21002A00F0938002EB84
:10858000820203EBC203343394F82020042A00F063
:108590009A80052A7FF444AB9A781B785201002B0D
:1085A00000F08580984BD05803037FF539AB97498D
:1085B000C0F3405000230880BDE8704002221846F6
:1085C000FFF754BA2277002B7FF42DAC34E603205A
:1085D000FFF702FA6B888FE400287FF421AB343375
:1085E00046E400287FF41CAB3433FFF7FEBB24F0D5
:1085F000705444F0805170E5854D445926044FEA8B
:108600000242F4D483492140B3F8B840214393F89F
:10861000B04041EA844141F0C05141F400415CE581
:1086200024F0705444F0805130E5794D44592604CB
:108630004FEA0242F4D477492140B3F890402143F5
:1086400093F8884041EA844141F0C05141F400412F
:108650001CE524F0705444F08051F0E46C4C0A594D
:1086600022F0705002F44022B2F5802F00F0C58055
:1086700040F4001008511EE4634D44592104E8D42D
:1086800065492140B3F86840214393F8604041EACE
:10869000844193F8614041EA845141F0C05141F472
:1086A0000041CCE400297FF4BBAA34336CE7584B7B
:1086B000D05806037FF5B4AA79E79B88002B3FF4D6
:1086C00079AEFFF7ADBA9A78002A3FF466AFFFF7AC
:1086D000A7BA4F4A00048C50F0E64D4A00048C5073
:1086E00002E74B4A00048C50D2E6494B0004CC50C0
:1086F00010E7A26AD279520644BF43F001032B80EF
:10870000FFF748BB404DB3F86A0049014C592604B5
:1087100027D4414A2240B3F86840224393F860408E
:1087200042EA844293F8614042EA845242F0C052E5
:1087300042F40042A2E5364CB3F89210400109041D
:108740000259150440D4334D1540B3F890202A4304
:1087500093F8885042EA854242F0C05242F4004207
:10876000B6E524F0705444F0805287E5284CB3F805
:10877000E210400109040259150434D4254D154076
:10878000B3F8E02093F8D830154345EA834343F02B
:10879000C05343F400430351EFE51D4CB3F8BA2036
:1087A0004001120401590D0422D41A4D0D40B3F8B2
:1087B000B810294393F8B05041EA854141F0C051C7
:1087C00041F400410151AEE522F0705242F0805276
:1087D0007EE524F0705444F08051A3E522F07053FC
:1087E00043F08053C8E522F0705343F08053D2E742
:1087F00021F0705141F08051E4E74FF0FF30FFF776
:108800005BBB00BF000000200009104000080020F2
:10881000000B104000F8D3C300F813C070B590F8F7
:1088200054300446042B15D8DFE803F05A3F1503F3
:108830000300BE4B1B78002B77D1BD4B1B6823B1C7
:10884000BC490022096810469847002384F8543038
:1088500084F8343070BD456C002D40F09880B44EE3
:1088600033683BB1816C2A4628469847356000281A
:1088700040F01781B049231DC1F8143BD1F8002BFB
:10888000D4F81C3122F03C421A4342F0004200234B
:10889000C1F8002B84F854301A4619461846FFF7E1
:1088A000E5F8032384F8543070BD436C002B51D19C
:1088B00090F83520012A00F02B8112B99D4B826C73
:1088C0001A6000231A46194684F854301846FEF7F9
:1088D000C9FF964A0423012184F85430117070BDF9
:1088E0000023924A924D436480F835302B60137018
:1088F000FFF772F9013000F0828094F854305A1E6C
:10890000012A60D9626C002A62D02368DB889A420F
:10891000A0D2B4F84010B2FBF1F301FB1323002BFB
:1089200098D1012384F8353070BD834A031DC2F805
:10893000143BD2F8003BD0F81C1123F03C430B430E
:1089400043F00043C2F8003B794B1B68002B7FF4D7
:1089500077AF7AE7794A90F834101068B4F840207D
:10896000D0F81C01002900F08D809A42724928BF7E
:108970001A4642F40022C1F81029D1F8003923F038
:108980003C43034343F00443C1F8003970BD6B4BD3
:1089900090F834201968B0F84030D1F81C11002A42
:1089A00061D0AB42644A28BF2B4643F40023C2F88F
:1089B0001039D2F8003923F03C430B4343F0044311
:1089C000C2F8003970BDA26D2A60022B9AD170BD29
:1089D0005949231DC1F8143BD1F8003BD4F81C01C0
:1089E00023F03C43034343F00043C1F8003B94F8B9
:1089F000353050490A60002B7FF427AF4CE794F8DC
:108A000036304F495801425802F44025B5F5802FC1
:108A100009D032F0705248BF42F0804242F4001256
:108A2000425094F8363047495B0100205A5884F888
:108A3000340002F44020B0F5802F22F070521CBFA9
:108A400042F400125A503C4A231DC2F8143BD2F89B
:108A5000003BD4F81C1123F03C430B4343F000438C
:108A6000C2F8003B70BD344A43F40023C2F8103B07
:108A7000D2F8003B23F03C430B4343F00443C2F8DD
:108A8000003B70BD2C4942F40022C1F8102BD1F8F4
:108A9000003B23F03C43034343F00443C1F8003B55
:108AA00070BD94F8363026495801425802F44025EA
:108AB000B5F5802F09D032F0705248BF42F08042A5
:108AC00042F40012425094F836301E495B010020F7
:108AD0005A5884F8340002F44020B0F5802F22F078
:108AE00070521CBF42F400125A50134A231DC2F8A0
:108AF000143BD2F8003BD4F81C1123F03C430B4349
:108B000043F000430021C2F8003B84F8541070BDCC
:108B1000084A816C80F85430116018461A4619468C
:108B2000FEF7A4FF022384F8353070BD080800204A
:108B30000C08002004080020000010400000002065
:108B400000091040000B1040184B1B6800F00F018B
:108B50005A1800064CBF92F8FC2092F80C2152B132
:108B600002EB820203EBC203343393F82020013A74
:108B7000012A08D97047B1B993F85420013A012A63
:108B800003F13403F6D810B45C6A002083F82000A7
:108B900034B1D3E90421586223465DF8044B1847E9
:108BA0005DF8044B704792F82030FFDE0000002093
:108BB000594A5A4BF0B4D2E90054D2E90201C3F841
:108BC0000451C3F80841564CC3F80C01554AC3F888
:108BD00010112168136821F07055C80354BF45F087
:108BE000805545F0005593F85E204F4893F85CC0DF
:108BF000076889034D4958BF45F080650E6848BF36
:108C000045F000655201BCF1000F65D1DFF824C1C9
:108C100042F80C50624417615661666893F88620EA
:108C200093F884C026F07055F70354BF45F0805583
:108C300045F00055B60347684E6854BF45F080655F
:108C400045F000655201BCF1000F5CD1DFF8E4C0D3
:108C500042F80C50624417615661A66893F8AE2042
:108C600093F8ACC026F07055F70354BF45F080551B
:108C700045F00055B70358BF45F0806587688E689A
:108C800048BF45F000655201BCF1000F33D1DFF859
:108C9000A4C042F80C50624417615661E56893F82D
:108CA000D620C068C96825F07054EE034CBF44F06C
:108CB000005444F08054AD0393F8D4504CBF44F0BA
:108CC000006444F08064530175B1194A9C50134408
:108CD000F0BC186159617047DFF854C042F80C507D
:108CE00062441761566198E7124A9C501344F0BCE5
:108CF000186159617047DFF838C042F80C5062447F
:108D000017615661CAE7DFF828C042F80C50624488
:108D100017615661A1E700BF140800200000104051
:108D2000440800200000002034080020240800200F
:108D300000091040000B104038B52D4B00220421D3
:108D400011201A70FDF764FB2A4B1B68DB0702D465
:108D5000294B02221A62294B294AD3F8001E2948BE
:108D600021F00101C3F8001ED3F8001E21F00C0110
:108D7000C3F8001E596905680A402AB945F0010286
:108D8000C3F80428C3F804581F4B1C4C1A681F4B27
:108D9000E2601B68C4F80038FFF70AFF1C4A1D4B4D
:108DA0001268C4F8002E1A681B4BC4F814281A68FD
:108DB0001A4BC4F810281A68194BC4F81C28C4F8B8
:108DC00004581A68174BA2621A68174B62621A6835
:108DD000164BA2601A68164B22601B68A361D4F878
:108DE000043843F400630120C4F8043838BD00BFE0
:108DF000840800201008002000800C400000104073
:108E000000008080640800207408002068080020AA
:108E100054080020580800205C080020600800204A
:108E20006C08002070080020780800207C080020D2
:108E300080080020604A614B012130B41170604A03
:108E4000996911605F4A196811605F4A99681160F9
:108E50005E4AD96811605E4A596A11605D4A996A32
:108E600011605D4AD3F8001811605C4AD3F8041809
:108E700011605B4AD3F81C1811605A495A4AD3F85A
:108E80001008086012685949D3F814080860584C53
:108E900092F85E1092F85C00D3F8003E23604B011C
:108EA000002840F0868053495D5892F886C05818D3
:108EB000514B04691C60446950485149046092F860
:108EC00084400D604FEA4C1C002C70D1494D0CEBD6
:108ED00005045CF805504D6025695D60646992F891
:108EE000AEC0446092F8AC404FEA4C1C002C5CD100
:108EF000404D0CEB05045CF805508D6025699D60C4
:108F0000646992F8D6C0846092F8D4404FEA4C125B
:108F1000002C42D03B4D54195259CA6022696469F1
:108F2000DA60264B3849D3F804210A60D3F80821C7
:108F30004A60C460D3F80C01D3F81041D3F800287C
:108F4000886022F07C4242F08052C3F80028D3F8B7
:108F500000282E4842F00802C3F800289861D3F890
:108F6000000E2B4A40F00400C3F8000ED3F8000EA8
:108F7000CC6040F00800C3F8000ED3F8001E25486E
:108F800041F00101C3F8001ED16A01606023536201
:108F9000D36A9B03FCD530BC7047164D5419525907
:108FA000CA602269DA606469BBE7164DA1E7154D16
:108FB0008DE7144978E700BF8408002000001040C6
:108FC000800800207C080020780800207408002019
:108FD000700800206C080020680800206408002049
:108FE000600800205C0800200000002058080020D5
:108FF00054080020000B10403408002024080020F2
:10900000440800200009104014080020000080805F
:1090100000800C40100800202DE9F84FA14DFDF70D
:10902000BDFB2B78804653B19F4BDA6A500740F165
:10903000A3819D4A20235362D36A1904FCD59B4B1C
:109040009A681AB11A68920300F16B81984B5C69B7
:109050009A69144014D0210200F1B181002CC0F2B1
:10906000CB81230500F18E8127070ED4A6041DD4E1
:10907000E50448D4600300F1AE80230300F1FD80D5
:109080004046BDE8F84FFDF78DBB894A0823536180
:10909000884B1B681B6B1B6923B1D2F80808C0F30F
:1090A0000D20984724F00804A604E1D52B78002B66
:1090B00040F03E827E4B7F4A1168D3F80428D1F8F5
:1090C0001C0122F4F06242F48072C3F80428D3F841
:1090D000002B22F03C42024342F00442C3F8002B32
:1090E000002281F85420096B9A614FF0FF32086921
:1090F0005A617149714A24F40054002808BF0A4695
:10910000E5049A61B6D56A4AD2F8043823F4F063CC
:10911000202123F00103C2F804381161136913F010
:109120002003FBD1664D67484FF0FF31A960A9626B
:10913000A964A966C5F88810C5F8A810C5F8C810B4
:109140008160816281648166C0F88810C0F8A810CF
:10915000C0F8C8104FF00110C2F81C080920C2F86E
:1091600014080120C2F81008D2F8000820F4FE60AC
:10917000C2F800084F4805684FF0C046281D85F822
:109180003430C2F8106B2860C2F8140BD2F8000B10
:109190002E6BD5F81C5120F03C40284340F0044091
:1091A000C2F8000B93615161444B3169424A002976
:1091B00008BF13463E4A9361336803B198470320C2
:1091C000FEF70AFC24F480546FF00A0001F0E0F985
:1091D00060037FF552AFFEF7F7F9062800F0AB8188
:1091E000DFF8CCA0364FDAF81838DAF81C28DFF8A8
:1091F000C4B003EA02091FFA89F9002601253A469C
:1092000019EA050F2DD0DBF80000831993F8FC3024
:10921000002B00F03D8103EB830100EBC10191F8CD
:1092200036C0DAF8101802EB4C1CDCF808C001EA72
:109230000C01C90715D5282101FB03030121343393
:10924000B960D3F810C0002E00F031813969C1F344
:109250001201ACEB0100C3E90410D878FFF774FCED
:10926000174A01366D00072EADB207F12007C7D1AE
:1092700024F4802423037FF503AFFEF7A5F9062825
:1092800000F06081DFF828900E4ED9F81838D9F830
:109290001C28DFF820B003EA020A4FEA1A4A002528
:1092A00001242EE08408002000800C4000400C4087
:1092B000000010400000002000380C8008380C80AE
:1092C00000091040000B1040282202FB0303343336
:1092D0009A78A14901EB4211D1F808C0D9F8147865
:1092E0000CEA070717F0010F40F0BC803A0700F1C5
:1092F000968001356400072DA4B206F120063FF4E4
:10930000BFAE14EA0A0FF4D0DBF80000431993F85B
:109310000C31002BD8D1002D40F06C8100F13403CA
:10932000D6E79A68D7070BD501221A615B68DE077A
:1093300006D52B78002B40F051810220FEF74CFB24
:10934000864B9A6894077FF581AE02221A615B68AA
:10935000D8073FF57BAE2B7803F0FF0223B9804B93
:109360004FF0FF319A6159612B78002B00F0338167
:109370000020FEF731FB69E67A4A126802F0140217
:109380001A6256E6764B4FF400625A616FF009009C
:1093900001F0FEF8FEF718F9002800F0A880FEF7AB
:1093A00013F9831EDBB2032B06D82B780BB9FFF71A
:1093B00041FD0620FEF710FB24F4006454E62A78F1
:1093C000002A00F090802B78002B40F0A780634BA0
:1093D0005B68DA0703D42B78002B00F0BA805F4B70
:1093E000586810F0010018BF032024F40004FEF7B1
:1093F000F3FA002CBFF635AE2B781BB9584B4FF063
:1094000000425A612B78002B40F0B280564B1B680B
:1094100093F82100FEF7E0FA24F0004421E6D9F8A1
:10942000083BDBF800005B0656D4D9F8103BC3F3C9
:109430004173032B1DBFC3F10203DB00043304237C
:109440000344024642F8043BD9F8103B43F0C043C2
:10945000C9F8103B0823C9F8142BC9F8083BFFF7DB
:10946000DDF946E74FF0010CD3F810E0C6F808C06C
:10947000002A45D1B3F80CC05969F4453ABFAEEBA8
:109480000C0261447144C3E90421FFF7C7F92DE7D9
:109490008EBB90F83610DAF8103802EB411189686B
:1094A0000B40D90713D50123BB6000F134031969C0
:1094B000B3F80CC05E69614593BF7618A1EB0C014F
:1094C00066440021C3E90416FFF7A8F9274A6D0096
:1094D000ADB22037012693E64023C9F8083BD9F8FE
:1094E000143B083BADE74FF400025A616BE70220E2
:1094F000FEF772FA53E71A4AD2F810289B78FFDE7B
:1095000008699A69C0F31200AEEB020E121A704499
:10951000C3E90402D878FFF717FBE7E6FFF70CFC76
:1095200000283FF454AF0E4B4FF400025A614EE74F
:10953000FFF702FCBEE50C4B1B6893F82100FEF719
:109540004BFA4DE6084B1B6893F82100FEF744FAEE
:1095500098E6FFF76FFC42E7000B104000400C401C
:1095600000001040100800200000002000091040FA
:10957000FFF7E2FB00283FF449AF1F4A4FF00043DA
:1095800053611E4B1B68002183F834104FF0C0401C
:10959000191DC2F8100B1960C2F8141BD2F8001B79
:1095A000D3F81C0121F03C41014341F00441C2F8D1
:1095B000001BD2F8041821F4F06141F48071C2F864
:1095C0000418D2F8001B21F03C41014341F0044152
:1095D000C2F8001B1CE7FFF72DFCC9E6FFF7ACFB48
:1095E00000283FF4AAAE044B00214FF4C052996109
:1095F0009A61A2E69B78FFDE000010400000002088
:109600002DE9F04F834687B08E488A460121FCF74A
:1096100049FD0521002304220846FDF751FD8A4B30
:109620008A4A03219961D2F8003E23F00103C2F86F
:10963000003ED2F8003E23F00C03C2F8003E13694E
:1096400043F0010313611369D807FCD4012001F032
:109650003BF87E4C2369002BFCDAE36823F060437F
:1096600043F08043E360FDF797F8322000F0EAFF13
:10967000FDF790F8D4F8003843F00303C4F800383D
:10968000D4F8003843F00403C4F80038D4F80038A4
:1096900023F4C053C4F80038A36823F03E0343F01A
:1096A0002203A360D4F8043823F4074323F0800393
:1096B0005A4643F40043C4F80438102A644B38BFB8
:1096C000102219681FFA82F8C2F3090262620B6D58
:1096D000102B38BF102342EA0342A26291F8FD200A
:1096E00091F8FE7091F8FF6091F8000191F8014146
:1096F00091F802519BB2002A40F0AE80CDE902BA47
:1097000007EB870E06EB860CDFF8489101EBCE0ED7
:1097100001EBCC0C01221FB19EF839A092454FD02D
:109720001EB19CF839A0924560D038B100EB800A98
:1097300001EBCA0A9AF839B093456DD03CB104EBFD
:10974000840A01EBCA0A9AF839B0934523D0DDB1F7
:1097500005EB850A01EBCA0A9AF839B0934513D193
:10976000DAF850A04344BAF1100F38BF4FF0100A96
:109770000FFA82F8C3F30A0B4BEA0A4B49F828B0F8
:109780001FFA83F81FFA8AF30132D2B2072AC2D134
:10979000DDE902BAD4E0DAF850A04344BAF1100F80
:1097A00038BF4FF0100A0FFA82F8C3F30A0B4BEAE6
:1097B0000A4B49F828B01FFA83F81FFA8AF3C6E764
:1097C00043440193DEF85030102B38BF10239A46E3
:1097D000019B0FFA82F8C3F30A0B4BEA0A4B49F8D4
:1097E00028B01FFA83F81FFA8AF399E743440193DC
:1097F000DCF85030102B38BF10239A46019B0FFA2B
:1098000082F8C3F30A0B4BEA0A4B49F828B01FFA57
:1098100083F81FFA8AF388E7DAF850A04344BAF1D4
:10982000100F38BF4FF0100A0FFA82F8C3F30A0B7B
:109830004BEA0A4B49F828B01FFA83F81FFA8AF35B
:109840007CE700BF00D2040000400C400000104044
:10985000000000200001104002EB820201EBC20C6C
:1098600007EB870201EBC2020292CDE904BA06EBD4
:10987000860201EBC202DFF878E203920196012230
:109880009CF83990914500F0D980B7B1029E96F8C6
:1098900039904A4511D19844336DDFF858B2102BF6
:1098A00038BF1023C8F30A0A0FFA82F94AEA034ABA
:1098B0004BF829A01FFA88F89BB2019E2EB1039E97
:1098C00096F839904A4500F0E08040B100EB8009FD
:1098D00001EBC90999F839A0524500F0E98044B17B
:1098E00004EB840901EBC90999F839A0524500F04D
:1098F000B580EDB105EB850901EBC90999F839A0EF
:10990000524515D1D9F85090DFF8E8B14344B9F188
:10991000100F38BF4FF010090FFA82F8C3F30A0A8C
:109920004AEA094A4BF828A01FFA83F81FFA89F37C
:109930000132D2B2072A0EF1040EA1D1DDE904BA38
:10994000D344BBF5007F00F2CA80B8F5007F00F277
:10995000C680644A4FF48463136113699906FCD48A
:109960001023614C5F481361036913F01003FBD1AE
:109970005E4AC0F810384FF0FF31C0F81438C0F814
:109980001C38C0F83438136013619160136213639C
:109990009162136413659164136613679166C2F84C
:1099A0008030C2F89030C2F88810C2F8A030C2F8F7
:1099B000B030C2F8A810C2F8C030C2F8D030C2F837
:1099C000C810C2F80032C2F81032C2F80812C2F849
:1099D0002032C2F83032C2F82812C2F84032C2F83F
:1099E0005032C2F84812C2F86032C2F87032C2F87F
:1099F0006812C2F88032C2F89032C2F88812C2F8F7
:109A0000A032C2F8B032C2F8A812C2F8C032C2F80E
:109A1000D032C2F8C812236802F5007243F4003352
:109A200003222360226162616368DB074CBF01236C
:109A30000223E360002007B0BDE8F08F9844DCF813
:109A40005030102B38BF1023C8F30A0949EA0349E4
:109A5000CEF800901FFA88F89BB216E7D9F850901C
:109A6000DFF890B04344B9F1100F38BF4FF0100940
:109A70000FFA82F8C3F30A0A4AEA094A4BF828A007
:109A80001FFA83F81FFA89F333E79844336DDFF840
:109A900064B0102B38BF1023C8F30A0A0FFA82F9FA
:109AA0004AEA034A4BF829A01FFA88F89BB20CE750
:109AB000D9F85090DFF83CB04344B9F1100F38BFEB
:109AC0004FF010090FFA82F8C3F30A0A4AEA094A6A
:109AD0004BF828A01FFA83F81FFA89F3FFE66FF00E
